S016000041546D6567613332415F4D4355302E73726563C5
S11300000C942A000C94E0000C940D010C943A0119
S11300100C9447000C9447000C9447000C94470040
S11300200C9447000C9447000C94C0010C94930169
S11300300C9447000C9447000C9447000C94470020
S11300400C9447000C9447000C9447000C94470010
S11300500C94470011241FBECFE5D8E0DEBFCDBF0E
S113006010E0A0E6B0E0EEEDF3E002C005900D92E2
S1130070A036B107D9F720E0A0E6B0E001C01D9298
S1130080AA36B207E1F70E9449000C94ED010C94E2
S11300900000E12C00E020E040E160E082E00E940A
S11300A06701C1E440E064E086E390E00E94BA00A6
S11300B08C2F0E948F0141E064E086E390E00E946F
S11300C0BA002FEF83ED90E3215080409040E1F798
S11300D000C00000CF5FE6CFFC014130D9F018F03A
S11300E0423081F10895683091F0218181E090E0FF
S11300F0AC0102C0440F551F6A95E2F7BA0160953E
S1130100862F8223818382816823628308951182EA
S113011012820895683091F0218181E090E0AC0171
S113012002C0440F551F6A95E2F7BA01842F8095E7
S1130130822381838281682B6283089511828FEFE9
S113014082830895683091F0218181E090E0AC01D0
S113015002C0440F551F6A95E2F7BA01822F842B1F
S11301608183828160956823628308958FEF818300
S113017012820895683009F1413079F4FC0142811A
S113018021E030E0F90102C0EE0FFF1F6A95E2F7AB
S1130190BF01642BFC0162830895FC01428121E0CC
S11301A030E0F90102C0EE0FFF1F6A95E2F7BF01CC
S11301B060956423FC0162830895FC0142830895E1
S11301C01F920F920FB60F9211242F933F934F93C8
S11301D05F936F937F938F939F93AF93BF93EF93AB
S11301E0FF938091640090916500892B29F0E09140
S11301F06400F09165000995FF91EF91BF91AF9173
S11302009F918F917F916F915F914F913F912F912A
S11302100F900FBE0F901F9018951F920F920FB65C
S11302200F9211242F933F934F935F936F937F9378
S11302308F939F93AF93BF93EF93FF93809162004B
S113024090916300892B29F0E0916200F0916300A2
S11302500995FF91EF91BF91AF919F918F917F91FC
S11302606F915F914F913F912F910F900FBE0F901F
S11302701F9018951F920F920FB60F9211242F936F
S11302803F934F935F936F937F938F939F93AF931A
S1130290BF93EF93FF938091600090916100892B4D
S11302A029F0E0916000F09161000995FF91EF91D0
S11302B0BF91AF919F918F917F916F915F914F917A
S11302C03F912F910F900FBE0F901F901895EF92B2
S11302D00F936EB99E2D9064092B202B242B822B17
S11302E08DB9403199F442E065E086E390E00E94E4
S11302F06C0042E064E086E390E00E946C0042E01F
S113030067E086E390E00E946C0006C040E066E08F
S113031086E390E00E946C000F91EF9008958FB9EE
S1130320779BFECF08951F920F920FB60F92112460
S11303302F933F934F935F936F937F938F939F93E9
S1130340AF93BF93EF93FF938091680090916900FE
S1130350892B29F0E0916800F09169000995FF91DB
S1130360EF91BF91AF919F918F917F916F915F9129
S11303704F913F912F910F900FBE0F901F901895A2
S11303801F920F920FB60F9211242F933F934F9306
S11303905F936F937F938F939F93AF93BF93EF93E9
S11303A0FF938091660090916700892B29F0E0917A
S11303B06600F09167000995FF91EF91BF91AF91AD
S11303C09F918F917F916F915F914F913F912F9169
S11103D00F900FBE0F901F901895F894FFCF5A
S9030000FC
