S01A000041546D6567613332415F4669726D576172652E73726563B9
S11300000C942A000C94DB010C9408020C94350225
S11300100C9447000C9447000C9447000C94470040
S11300200C9447000C9447000C948F020C946202C9
S11300300C9447000C9447000C9447000C94470020
S11300400C9447000C9447000C9447000C94470010
S11300500C94470011241FBECFE5D8E0DEBFCDBF0E
S113006010E0A0E6B0E0E4E6FAE002C005900D92EC
S1130070A63BB107D9F720E0A6EBB0E001C01D9282
S1130080A63CB207E1F70E9449000C9430050C9499
S11300900000CF93DF93CDB7DEB727970FB6F89460
S11300A0DEBF0FBECDBF87E0E0E6F0E0DE011196D3
S11300B001900D928A95E1F720E040E260E483E04C
S11300C00E94BC0242E062E086E390E00E94670185
S11300D042E063E086E390E00E94670110E00F2EA7
S11300E0F4E6BF2EF02D1EC0612F772767FD7095B3
S11300F0872F972F0E9414046B017C0101E0298152
S11301003A814B815C816D817E818F810E94D20016
S11301102FEF89E698E1215080409040E1F700C03C
S11301200000165F153604F31B2D612F772767FD3A
S11301307095872F972F0E9414046B017C0101E0B6
S113014029813A814B815C816D817E818F810E94FE
S1130150D2002FEF89E698E1215080409040E1F7EA
S113016000C000001A50163F01F70F2EC12CD12CED
S1130170F0E2EF2EF1ECFF2EF02D00E029813A8120
S11301804B815C816D817E818F810E94D2002FEF33
S113019081E19AE7215080409040E1F700C00000DF
S11301A010E0C0CFAF92BF92CF92DF92EF92FF9256
S11301B00F931F93CF93DF93CDB7DEB727970FB677
S11301C0F894DEBF0FBECDBF29833A835C836D8371
S11301D029813A81642FAC80BD80172F80FD30C007
S11301E0013081F028F00230B9F00330F9F05EC03C
S11301F040E0C9010E94B50140E0612FC5010E94A1
S1130200B50154C041E0C9010E94B50140E0612F2D
S1130210C5010E94B5014AC040E0C9010E94B50170
S113022041E0612FC5010E94B50140C041E0C90110
S11302300E94B50141E0612FC5010E94B50136C09D
S1130240013091F028F00230D1F0033021F12EC0BA
S113025040E260E070E0CB010E94C60240E0612F02
S1130260C5010E94B50122C040E2C701B6010E9447
S1130270C60240E0612FC5010E94B50117C040E2EB
S113028060E070E0CB010E94C60241E0612FC5012D
S11302900E94B5010BC040E260E070E0CB010E9417
S11302A0C60240E0612FC5010E94B50127960FB632
S11302B0F894DEBF0FBECDBFDF91CF911F910F9198
S11302C0FF90EF90DF90CF90BF90AF900895FC0126
S11302D04130D9F018F0423081F10895683091F03E
S11302E0218181E090E0AC0102C0440F551F6A9562
S11302F0E2F7BA016095862F822381838281682385
S113030062830895118212820895683091F02181E8
S113031081E090E0AC0102C0440F551F6A95E2F7FA
S1130320BA01842F8095822381838281682B628322
S1130330089511828FEF82830895683091F02181AE
S113034081E090E0AC0102C0440F551F6A95E2F7CA
S1130350BA01822F842B8183828160956823628312
S113036008958FEF818312820895683009F1413036
S113037079F4FC01428121E030E0F90102C0EE0F82
S1130380FF1F6A95E2F7BF01642BFC0162830895A5
S1130390FC01428121E030E0F90102C0EE0FFF1FB1
S11303A06A95E2F7BF0160956423FC0162830895B6
S11303B0FC01428308951F920F920FB60F921124ED
S11303C02F933F934F935F936F937F938F939F9359
S11303D0AF93BF93EF93FF938091BA009091BB00CA
S11303E0892B29F0E091BA00F091BB000995FF91A7
S11303F0EF91BF91AF919F918F917F916F915F9199
S11304004F913F912F910F900FBE0F901F90189511
S11304101F920F920FB60F9211242F933F934F9375
S11304205F936F937F938F939F93AF93BF93EF9358
S1130430FF938091B8009091B900892B29F0E09145
S1130440B800F091B9000995FF91EF91BF91AF9178
S11304509F918F917F916F915F914F913F912F91D8
S11304600F900FBE0F901F9018951F920F920FB60A
S11304700F9211242F933F934F935F936F937F9326
S11304808F939F93AF93BF93EF93FF938091B600A5
S11304909091B700892B29F0E091B600F091B70054
S11304A00995FF91EF91BF91AF919F918F917F91AA
S11304B06F915F914F913F912F910F900FBE0F90CD
S11304C01F9018951F920F920FB60F9211242F931D
S11304D03F934F935F936F937F938F939F93AF93C8
S11304E0BF93EF93FF938091BE009091BF00892B3F
S11304F029F0E091BE00F091BF000995FF91EF91C2
S1130500BF91AF919F918F917F916F915F914F9127
S11305103F912F910F900FBE0F901F9018951F922F
S11305200F920FB60F9211242F933F934F935F9323
S11305306F937F938F939F93AF93BF93EF93FF93A7
S11305408091BC009091BD00892B29F0E091BC0002
S1130550F091BD000995FF91EF91BF91AF919F91EB
S11305608F917F916F915F914F913F912F910F9058
S11305700FBE0F901F901895642B862B83BF89B7ED
S11305808C7F89BF89B7282B29BF0895CF92DF922A
S1130590EF92FF92CF936B017C01C42F42E063E0A2
S11305A086E390E00E946701C03219F0C033C9F0BD
S11305B036C020E030E048EC52E4C701B6010E94A6
S11305C07E0320E030E04FE753E40E94A00420E0E3
S11305D030E040E05FE30E941A030E94E6036CBF30
S11305E022C0A701960160E070E088EC92E40E94CA
S11305F0190320E030E048EC52E40E947E0320E03E
S113060030E04FE753E40E94A00420E030E040E0F3
S11306105FE30E941A030E94E6036CBF04C086EAEB
S113062090E00E940305CF91FF90EF90DF90CF9070
S113063008955058BB27AA270ED048C139D130F0AD
S11306403ED120F031F49F3F11F41EF42EC10EF47C
S1130650E095E7FB24C1E92F4AD180F3BA1762077A
S113066073078407950718F071F49EF562C10EF4C0
S1130670E0950B2EBA2FA02D0B01B90190010C01AE
S1130680CA01A0011124FF27591B99F0593F50F4C6
S1130690503E68F11A16F040A22F232F342F44271E
S11306A0585FF3CF469537952795A795F040539516
S11306B0C9F77EF41F16BA0B620B730B840BBAF0E6
S11306C09150A1F0FF0FBB1F661F771F881FC2F751
S11306D00EC0BA0F621F731F841F48F48795779565
S11306E06795B795F7959E3F08F0B3CF9395880F1C
S11306F008F09927EE0F9795879508950CD0E6C0DA
S1130700DED040F0D5D030F021F45F3F19F0C7C0FF
S1130710511110C1CAC0EBD098F39923C9F35523E2
S1130720B1F3951B550BBB27AA27621773078407E0
S113073038F09F5F5F4F220F331F441FAA1FA9F396
S113074033D00E2E3AF0E0E830D091505040E69588
S1130750001CCAF729D0FE2F27D0660F771F881FE9
S1130760BB1F261737074807AB07B0E809F0BB0BD8
S1130770802DBF01FF2793585F4F2AF09E3F5105FC
S113078068F08DC0D7C05F3FECF3983EDCF38695EC
S113079077956795B795F7959F5FC9F7880F911D72
S11307A09695879597F90895E1E0660F771F881F5E
S11307B0BB1F621773078407BA0720F0621B730B11
S11307C0840BBA0BEE1F88F7E095089598D088F053
S11307D09F5790F0B92F9927B751A0F0D1F0660F29
S11307E0771F881F991F1AF0BA95C9F712C0B13044
S11307F081F09FD0B1E008959CC0672F782F88279F
S1130800B85F39F0B93FCCF3869577956795B39582
S1130810D9F73EF490958095709561957F4F8F4FF1
S11308209F4F0895E89409C097FB3EF490958095F6
S1130830709561957F4F8F4F9F4F9923A9F0F92FA2
S113084096E9BB279395F695879577956795B79520
S1130850F111F8CFFAF4BB0F11F460FF1BC06F5F06
S11308607F4F8F4F9F4F16C0882311F096E911C018
S1130870772321F09EE8872F762F05C0662371F039
S113088096E8862F70E060E02AF09A95660F771F4D
S1130890881FDAF7880F9695879597F9089597F941
S11308A09F6780E870E060E008959FEF80EC089512
S11308B000240A941616170618060906089500243B
S11308C00A9412161306140605060895092E0394B5
S11308D0000C11F4882352F0BB0F40F4BF2B11F429
S11308E060FF04C06F5F7F4F8F4F9F4F089557FD88
S11308F09058440F551F59F05F3F71F04795880F8A
S113090097FB991F61F09F3F79F087950895121620
S113091013061406551FF2CF4695F1DF08C01616CC
S113092017061806991FF1CF86957105610508947D
S11309300895E894BB2766277727CB0197F9089594
S11309400BD0C4CFB5DF28F0BADF18F0952309F037
S1130950A6CFABCF1124EECFCADFA0F3959FD1F37E
S1130960950F50E0551F629FF001729FBB27F00D59
S1130970B11D639FAA27F00DB11DAA1F649F6627AE
S1130980B00DA11D661F829F2227B00DA11D621FFD
S1130990739FB00DA11D621F839FA00D611D221FB7
S11309A0749F3327A00D611D231F849F600D211D9B
S11309B0822F762F6A2F11249F5750408AF0E1F03E
S11309C088234AF0EE0FFF1FBB1F661F771F881F87
S11309D091505040A9F79E3F510570F060CFAACFC7
S11309E05F3FECF3983EDCF3869577956795B79572
S11309F0F795E7959F5FC1F7FE2B880F911D96959C
S1130A00879597F908950F931F93CF93DF93E09100
S1130A10C200F091C300238121FF1BC0EC0100E060
S1130A2010E089916091C2007091C300DB011896B7
S1130A30ED91FC911997882331F00995892B89F35D
S1130A400FEF1FEFEECF8AE00995892B11F4C8014F
S1130A5002C08FEF9FEFDF91CF911F910F91089507
S1070A60F894FFCF34
S1130A64360002360003014572726F72202C20494D
S1130A746E76616C6964204F4352302056616C7504
S1130A84652000506C65617365205265436F6E7315
S1130A9469646572205468652046726571205661E4
S1130AA46C7565732000496E76616C696420496EC7
S1090AB4707574200000BF
S9030000FC
