S016000041546D6567613332415F4D4355312E73726563C4
S11300000C942A000C9491050C94BE050C94EB05F9
S11300100C9447000C9447000C9447000C94470040
S11300200C9447000C9447000C94BD060C94900665
S11300300C9447000C9447000C9447000C94470020
S11300400C9447000C9447000C9447000C94470010
S11300500C94470011241FBECFE5D8E0DEBFCDBF0E
S113006012E0A0E6B0E0ECE3F4E102C005900D92EA
S1130070AC34B107D9F722E0ACE4B2E001C01D9280
S1130080A23CB207E1F70E9449000C941C0A0C94AC
S113009000000E9405020E94B8030E9461000E94B1
S11300A0C7030E9461009FEC980F9230C0F7813320
S11300B019F40E940805EFCF823369F70E94960273
S11300C0EACF30EF2FEF9FEE6FED5FEB4FE73ABBD8
S11300D02BBB8BB38F708BBB000089B38F70809365
S11300E0BA028F30B1F77FEF89EFE0E071508040C2
S11300F0E040E1F700C0000089B38F708093BA023A
S11301008F3089F37FEF83EFE1E071508040E0406E
S1130110E1F700C0000089B38F708093BA028F307A
S113012011F39BBB000089B38F708093BA028F30A8
S113013019F01092BB0224C06BBB000089B38F700E
S11301408093BA028F3021F081E08093BB0218C003
S11301505BBB000089B38F708093BA028F3021F0AB
S113016082E08093BB020CC04BBB000089B38F704C
S11301708093BA028F3009F4AACF83E08093BB0244
S11301808091BA028E3059F4E091BB02F0E0EE0F98
S1130190FF1FEE0FFF1FE05AFF4F808108958D303F
S11301A059F4E091BB02F0E0EE0FFF1FEE0FFF1FCA
S11301B0E05AFF4F818108958B3059F4E091BB02DE
S11301C0F0E0EE0FFF1FEE0FFF1FE05AFF4F82819A
S11301D00895E091BB02F0E0EE0FFF1FEE0FFF1F4A
S11301E0E05AFF4F83810895A898A998EFE9FFE0AA
S11301F03197F1F700C00000AA9AEFE9FFE03197C8
S1130200F1F700C0000095B39F7095BB95B3282FFC
S1130210207F922B95BBEFE9FFE03197F1F700C007
S11302200000AA98EFE9FFE03197F1F700C0000061
S1130230AA9AEFE9FFE03197F1F700C0000095B307
S11302409F7095BB25B3F0E18F9FC0011124822BD1
S113025085BB8FE99FE00197F1F700C00000AA98E1
S1130260EFE9FFE03197F1F700C00000089584B38F
S1130270876084BB84B3806F84BB82E00E94F400F7
S113028088E20E94F4008FE00E94F40081E00E9462
S1130290F4000895A89AA998EFE9FFE03197F1F7DF
S11302A000C00000AA9AEFE9FFE03197F1F700C01F
S11302B0000095B39F7095BB95B3282F207F922B98
S11302C095BBEFE9FFE03197F1F700C00000AA9871
S11302D0EFE9FFE03197F1F700C00000AA9A95B367
S11302E09F7095BB25B3F0E18F9FC0011124822B31
S11302F085BB8FE99FE00197F1F700C00000EFE9AB
S1130300FFE03197F1F700C00000AA988FE99FE061
S11303100197F1F700C00000089581E00E94F40005
S11303200895CF93DF93EC018881882331F02196DF
S11303300E944A0189918111FBCFDF91CF910895E9
S1130340813031F060F0823029F0833029F006C02A
S1130350605C05C0605F03C0605B01C060E0862F25
S113036080680E94F4000895CF93DF93EC01862FF8
S1130370642F0E94A0018881882331F021960E9475
S11303804A0189918111FBCFDF91CF91089541E01A
S113039063E080E390E00E94710540E064E080E364
S11303A090E00E9471050E948D0146E060E080E7C4
S11303B090E00E94B4012FEF87EA91E6215080403B
S11303C09040E1F700C0000060E089E190E00E9405
S11303D0EA0640E063E080E390E00E94710541E0BA
S11303E064E080E390E00E9471052FEF87EA91E6D4
S11303F0215080409040E1F700C0000040E064E0FC
S113040080E390E00E947105089542E063E080E398
S113041090E00E94290542E064E080E390E00E94BD
S113042029050E94370141E062E086E390E00E94E2
S1130430290561E080E00E9421068FB780688FBFA4
S113044060E089E190E00E94EA06089542131BC02F
S11304504423D9F0FC013081FB012081321317C001
S1130460DC0111963196415050E04F5F5F4F840F8D
S1130470951F04C03D91219132130BC0A817B907F1
S1130480C9F781E0089580E0089581E0089580E04F
S1130490089580E00895AF92BF92CF92DF92EF92D9
S11304A0FF920F931F93CF93DF936C0161E081E080
S11304B00E94A00100E010E0C0E0D0E0A12CB12C2B
S11304C001C0E7010E9461008B3211F18A3219F4F4
S11304D01C161D06D4F4CA30D105A1F37E019FEF8A
S11304E0E91AF90ACC0DDD1D8883602F81E00E9492
S11304F0A00187E990E00E9491010F5F1F4F8BE0FC
S1130500E816F104F4F2E70103C0CA2DDB2DDACFBB
S11305100E948D018C2FDF91CF911F910F91FF903D
S1130520EF90DF90CF90BF90AF900895CF92DF927D
S1130530EF92FF920F931F93CF93DF93CDB7DEB764
S113054066970FB6F894DEBF0FBECDBF8BE08E0169
S11305500F5F1F4FF801282F11922A95E9F77E01AA
S11305609CE0E90EF11CF70111928A95E9F70E94CB
S11305708D0161E080E00E94A00189E990E00E9481
S1130580910161E081E00E94A001C8010E944B0238
S1130590C82E0E948D0161E080E00E94A0018DEAD6
S11305A090E00E94910162E081E00E94A001C701F5
S11305B00E944B02282F4C2DB701C8010E9426022D
S11305C0882379F16C2D81E090E00E94EA06CC202A
S11305D099F07801CA94D12C93E0C90ED11C02E0A1
S11305E010E0F70161917F01C8010E94EA060F5FE4
S11305F01F4F0C151D05A9F78FB780688FBF0E9488
S11306008D0140E061E081EC90E00E94B401FFEFD5
S113061023ED80E3F15020408040E1F700C000006A
S113062019C00E948D0140E060E088ED90E00E94D6
S1130630B40140E061E089EE90E00E94B4019FEFD4
S1130640E3EDF0E39150E040F040E1F700C000003A
S11306500E94960266960FB6F894DEBF0FBECDBF19
S1130660DF91CF911F910F91FF90EF90DF90CF908A
S11306700895FF920F931F93CF93DF93C82FF62E05
S1130680D72F81E00E94F7068C1329C0882349F1F3
S11306900F2D1D2F6894FF24F1F8F80EC2E0F80125
S11306A0D1918F018C2F0E94F706D81799F00E94E0
S11306B08D0146E061E08BEF90E00E94B401FFEF12
S11306C023ED80E3F15020408040E1F700C00000BA
S11306D080E008C0CF5FCF11E2CF81E003C080E0AB
S11306E001C081E0DF91CF911F910F91FF90089598
S11306F00F931F93CF93DF93CDB7DEB72A970FB62F
S1130700F894DEBF0FBECDBF8E010F5F1F4F8AE08E
S1130710F80111928A95E9F70E948D0141E060E0A9
S113072081E091E00E94B40162E081E00E94A001B6
S1130730C8010E944B02B8010E943903882319F0B2
S11307400E9496020AC00E948D0141E060E085E1AA
S113075091E00E94B4010E9478032A960FB6F8949F
S1130760DEBF0FBECDBFDF91CF911F910F910895D2
S11307700E948D0140E060E08DE291E00E94B401AE
S113078040E061E080E491E00E94B40108950E9499
S11307908D0140E060E08FE491E00E94B40140E00C
S11307A061E089E591E00E94B4010895EF92FF921F
S11307B00F931F93CF93DF93CDB7DEB72A970FB66E
S11307C0F894DEBF0FBECDBF8E010F5F1F4F8AE0CE
S11307D0F80111928A95E9F70E948D0140E060E0EA
S11307E084E691E00E94B40140E061E089E791E091
S11307F00E94B401FFEF23ED80E3F15020408040DC
S1130800E1F700C000000E948D0140E060E089E84B
S113081091E00E94B40162E081E00E94A001C8015D
S11308200E944B02182F8A30B9F00E948D014AE0D1
S113083050E06CE472E0812F90E00E94FE060E947A
S113084091019FEFE3EDF0E39150E040F040E1F7D8
S113085000C0000080E012C0CE0101967C011BE1C3
S1130860F70101917F01812F0E94F706081305C04B
S11308701F5F1532A9F781E001C080E02A960FB608
S1130880F894DEBF0FBECDBFDF91CF911F910F91C2
S1130890FF90EF900895CF93DF9389E10E94F706CC
S11308A061E0680F89E190E00E94EA0689E10E9414
S11308B0F706833029F089E10E94F706863069F54E
S11308C00E948D0142E060E08AE991E00E94B40157
S11308D040E061E089EA91E00E94B401CBE3D0E01A
S11308E06EE081E00E94A0014AE050E06CE472E016
S11308F0CE010E94FE068CE492E00E9491012FEF4B
S113090081EE94E0215080409040E1F700C0000067
S1130910219731F70E94D00440C089E10E94F70674
S1130920893010F16FEF8AE190E00E94EA060E949C
S1130930D6038823E1F30E948D0143E060E08DEB50
S113094091E00E94B40160E089E190E00E94EA062F
S11309502FEF83ED90E3215080409040E1F700C0F9
S113096000000E94960219C00E948D0141E060E0DF
S11309708AE991E00E94B40141E061E082ED91E0F6
S11309800E94B4012FEF83ED90E32150804090400A
S1130990E1F700C000000E94D004DF91CF910895D8
S11309A00F931F93CF93DF93CDB7DEB72B970FB67B
S11309B0F894DEBF0FBECDBF8E010F5F1F4F8BE0DB
S11309C0F80111928A95E9F70E948D0140E060E0F8
S11309D081EE91E00E94B40162E081E00E94A001F6
S11309E0C8010E944B02B8010E943903882319F000
S11309F00E94C70102C00E944B042B960FB6F894C4
S1130A00DEBF0FBECDBFDF91CF911F910F9108952F
S1130A100E948D0140E060E08FE491E00E94B40107
S1130A2040E061E087EF91E00E94B4010E94610020
S1130A30813319F40E94D00408950E946100823326
S1130A4019F40E94780308958AE092E00E949101CB
S1130A500895FC014130C9F018F0423061F1089565
S1130A60683081F0218181E090E002C0880F991FF5
S1130A706A95E2F78095922F982391839281892336
S1130A8082830895118212820895683081F0218151
S1130A9081E090E002C0880F991F6A95E2F7982FD1
S1130AA09095922391839281892B82830895118258
S1130AB08FEF82830895683081F0218181E090E096
S1130AC002C0880F991F6A95E2F7922F982B9183A1
S1130AD0928180958923828308958FEF8183128286
S1130AE008956830D9F0413061F4FC01428121E07D
S1130AF030E002C0220F331F6A95E2F7242B2283D1
S1130B000895FC01428121E030E002C0220F331F2E
S1130B106A95E2F72095242322830895FC014283F9
S1130B2008951F920F920FB60F9211242F933F93A3
S1130B304F935F936F937F938F939F93AF93BF93E1
S1130B40EF93FF938091B4029091B502892B29F021
S1130B50E091B402F091B5020995FF91EF91BF9134
S1130B60AF919F918F917F916F915F914F913F9141
S1130B702F910F900FBE0F901F9018951F920F92F8
S1130B800FB60F9211242F933F934F935F936F935C
S1130B907F938F939F93AF93BF93EF93FF93809132
S1130BA0B2029091B302892B29F0E091B202F09144
S1130BB0B3020995FF91EF91BF91AF919F918F91EE
S1130BC07F916F915F914F913F912F910F900FBE45
S1130BD00F901F9018951F920F920FB60F92112429
S1130BE02F933F934F935F936F937F938F939F9331
S1130BF0AF93BF93EF93FF938091B0029091B102B2
S1130C00892B29F0E091B002F091B1020995FF918E
S1130C10EF91BF91AF919F918F917F916F915F9170
S1130C204F913F912F910F900FBE0F901F901895E9
S1130C30C0E1D2E0DF93CF930E942E070F900F9074
S1130C40F9CF813079F120F0823009F455C066C0C3
S1130C50611107C085B7816085BF85B7826085BF94
S1130C601DC0613039F485B78E7F85BF85B782603A
S1130C7085BF14C0623039F485B7816085BF85B7FC
S1130C808D7F85BF0BC0633039F485B78E7F85BFF8
S1130C9085B78D7F85BF02C00E9418068BB780641C
S1130CA08BBF0895611107C085B7886085BF85B77C
S1130CB0846085BF1DC0613039F485B7886085BF05
S1130CC085B78B7F85BF14C0623039F485B7877FC1
S1130CD085BF85B7846085BF0BC0633039F485B7A1
S1130CE0877F85BF85B78B7F85BF02C00E941806AA
S1130CF08BB780688BBF0895611104C084B780648A
S1130D0084BF08C0613021F484B78F7B84BF02C0E4
S1130D100E9418068BB780628BBF08950E94180644
S1130D201F920F920FB60F9211242F933F934F935C
S1130D305F936F937F938F939F93AF93BF93EF933F
S1130D40FF938091B8029091B902892B29F0E09128
S1130D50B802F091B9020995FF91EF91BF91AF915B
S1130D609F918F917F916F915F914F913F912F91BF
S1130D700F900FBE0F901F9018951F920F920FB6F1
S1130D800F9211242F933F934F935F936F937F930D
S1130D908F939F93AF93BF93EF93FF938091B6028A
S1130DA09091B702892B29F0E091B602F091B70235
S1130DB00995FF91EF91BF91AF919F918F917F9191
S1130DC06F915F914F913F912F910F900FBE0F90B4
S1130DD01F9018952CB39FBB8EBB6DBBE29AE19A12
S1130DE087EA91E60197F1F700C0000008959CB3EB
S1130DF090E09FBB8EBBE09A8DB3089545325105B8
S1130E0020F4423010F00C940907FB011082CB014E
S1130E100895BB274A3031F4992322F4BDE290951A
S1130E2081959F4F0C941507BB27FB015527AA27D3
S1130E30880F991FAA1FA41710F0A41B8395505163
S1130E40B9F7A05DAA3308F0A95DA193009779F7DB
S1130E50B111B1931192CB010C943B09A0E0B0E025
S1130E60E4E3F7E00C94F509AE014B5F5F4FFA0140
S1130E7061917191AF018091BE029091BF020E9475
S1130E804407E2E00C94110AABE0B0E0EAE4F7E0D6
S1130E900C94E5096C017B018A01FC01178216821E
S1130EA0838181FFCCC1CE0101963C01F60193817F
S1130EB0F70193FD859193FF81917F01882309F4C4
S1130EC0BAC1853239F493FD859193FF81917F01F5
S1130ED0853229F4B60190E00E944B09E7CF912CAA
S1130EE0212C312CFFE1F315D8F08B3279F038F452
S1130EF0803279F08332A1F4232D20611DC08D321C
S1130F0061F0803369F4232D216016C0832D826043
S1130F10382EE32DE4603E2E2AC0F32DF8601DC068
S1130F2037FC2DC020ED280F2A3040F08E32B9F462
S1130F3036FC81C1232D2064322E19C036FE06C032
S1130F408AE0989E200D1124922E11C0EAE02E9E74
S1130F50200D1124222EF32DF0623F2E08C08C3672
S1130F6021F4832D8068382E02C0883641F4F701BD
S1130F7093FD859193FF81917F018111B3CF982FC8
S1130F809F7D9554933028F40C5F1F4F9FE3998302
S1130F900DC0833631F0833771F0833509F059C0C1
S1130FA021C0F801808189830E5F1F4F88248394B8
S1130FB0912C530113C02801F2E04F0E511CF8018B
S1130FC0A080B18036FE03C0692D70E002C06FEFCF
S1130FD07FEFC5010E9430094C018201F32DFF7798
S1130FE03F2E16C0280122E0420E511CF801A080B9
S1130FF0B18036FE03C0692D70E002C06FEF7FEF51
S1131000C5010E9425094C01F32DF0683F2E820191
S113101033FC1BC0822D90E088169906B0F4B6010B
S113102080E290E00E944B092A94F4CFF50137FC4A
S1131030859137FE81915F01B60190E00E944B09D2
S113104021102A9421E0821A91088114910471F7E5
S1131050E8C0843611F0893641F5F80137FE07C03F
S113106060817181828193810C5F1F4F08C0608110
S11310707181072E000C880B990B0E5F1F4FF32D07
S1131080FF763F2E97FF09C09095809570956195E6
S11310907F4F8F4F9F4FF0683F2E2AE030E0A3012F
S11310A00E948709882E861845C0853731F4232D80
S11310B02F7EB22E2AE030E025C0932D997FB92EE1
S11310C08F36C1F018F4883579F0B5C0803719F03F
S11310D0883721F0B0C0E92FE061BE2EB4FE0DC008
S11310E0FB2DF460BF2E09C034FE0AC0292F2660F0
S11310F0B22E06C028E030E005C020E130E002C096
S113110020E132E0F801B7FE07C06081718182817D
S113111093810C5F1F4F06C06081718180E090E075
S11311200E5F1F4FA3010E948709882E8618FB2D8E
S1131130FF773F2E36FE0DC0232D2E7FA22E89145D
S113114058F434FE0BC032FC09C0832D8E7EA82EC9
S113115005C0B82CA32C03C0B82C01C0B92CA4FE24
S11311600FC0FE01E80DF11D8081803321F49A2D1A
S1131170997EA92E09C0A2FE06C0B394B39404C0FC
S11311808A2D867809F0B394A3FC11C0A0FE06C092
S1131190B21488F4280C922C9B180EC0B21460F47C
S11311A0B60180E290E00E944B09B394F7CFB214E9
S11311B018F42B1802C0982C212CA4FE10C0B601E0
S11311C080E390E00E944B09A2FE17C0A1FC03C07B
S11311D088E790E002C088E590E0B6010CC08A2D53
S11311E0867859F0A1FE02C08BE201C080E2A7FC20
S11311F08DE2B60190E00E944B09891438F4B601DF
S113120080E390E00E944B099A94F7CF8A94F3010B
S1131210E80DF11D8081B60190E00E944B09811018
S1131220F5CF222009F442CEB60180E290E00E947C
S11312304B092A94F6CFF6018681978102C08FEF7D
S11312409FEF2B96E2E10C94010AFC01059061509A
S113125070400110D8F7809590958E0F9F1F0895C8
S1131260FC016150704001900110D8F78095909571
S11312708E0F9F1F0895DC01FC01672F7191772366
S1131280E1F7329704C07C916D9370836291AE173D
S1131290BF07C8F308950F931F93CF93DF93FB0108
S11312A0238121FD03C08FEF9FEF2CC022FF16C0C6
S11312B046815781248135814217530744F4A08124
S11312C0B1819D012F5F3F4F318320838C93268111
S11312D037812F5F3F4F3783268314C08B01EC0186
S11312E0FB010084F185E02D0995892BE1F6D801F5
S11312F016968D919C911797019617969C938E93B1
S11313001697CE01DF91CF911F910F910895FA01A5
S1131310AA27283051F1203181F1E8946F936E7F30
S11313206E5F7F4F8F4F9F4FAF4FB1E03ED0B4E021
S11313303CD0670F781F891F9A1FA11D680F791F62
S11313408A1F911DA11D6A0F711D811D911DA11D73
S113135020D009F468943F912AE0269F1124301983
S1131360305D3193DEF6CF010895462F4770405D1E
S11313704193B3E00FD0C9F7F6CF462F4F70405DCD
S11313804A3318F0495D31FD4052419302D0A9F728
S1131390EACFB4E0A6959795879577956795BA9522
S11313A0C9F700976105710508959B01AC010A2EE8
S11313B006945795479537952795BA95C9F7620FBF
S11313C0731F841F951FA01D08952F923F924F9263
S11313D05F926F927F928F929F92AF92BF92CF92C1
S11313E0DF92EF92FF920F931F93CF93DF93CDB7CA
S11313F0DEB7CA1BDB0B0FB6F894DEBF0FBECDBF42
S113140009942A88398848885F846E847D848C8412
S11314109B84AA84B984C884DF80EE80FD800C811B
S11314201B81AA81B981CE0FD11D0FB6F894DEBFFE
S10F14300FBECDBFED010895F894FFCF6E
S113143C3738392F3435362A3132332D20303D2B81
S113144C2054686520646F6F72206973206F706517
S113145C6E6564002054686520646F6F7220697334
S113146C20436C6F7365002A00596F7572206E658A
S113147C772050617373776F72643A200052652D34
S113148C656E7465722050617373776F72643A2061
S113149C00596F75722070617373776F7264206971
S11314AC73207361766564004661696C6564206FB2
S11314BC7065726174696F6E00706C656173652C14
S11314CC2054727920616761696E00627265616B88
S11314DC00456E746572206F6C6420706173737751
S11314EC6F72643A00796F75722070617373776FE1
S11314FC7264206E6F7420666F756E640050617335
S113150C73776F72642D6C6F636B20646F6F7200F2
S113151C20202020202057656C636F6D65210028E6
S113152C31294C6F672D696E002832297369676EF7
S113153C2D7570002054686520646F6F7220697378
S113154C20636C6F7365642000202020207065720A
S113155C6D616E656E746C7900456E7465722050A5
S113156C554B20636F64653A200057726F6E672089
S113157C70617373776F7264005472792061676160
S113158C696E20696E2020202053656300537563B7
S113159C6365737366756C206F7065726174696FC3
S11315AC6E00506C7A2C2074727920616761696EBC
S11315BC00456E74657220796F7572207061737357
S11315CC776F72643A20002832294368616E67652C
S11315DC2050617373776F726400666F6F6F6F0066
S11315EC212120536F6D655468696E672057656EB1
S11315FC742057726F6E6720212120506C656173C3
S113160C6520526520436865636B20596F757220A1
S10F161C53657474696E6773202121000B
S9030000FC
